:020000040000FA
:1000000008080020F50000000F01000011010000A9
:1000100000000000000000000000000000000000E0
:1000200000000000000000000000000013010000BC
:100030000000000000000000150100001701000092
:100040001901000019010000190100001901000048
:100050001901000000000000190100001901000052
:100060001901000019010000190100001901000028
:100070001901000019010000190100001901000018
:100080001901000019010000190100001901000008
:1000900019010000190100001901000019010000F8
:1000A000190100001901000000000000000000001C
:1000B0000000000000000000000000000000000040
:1000C0000348854600F032F8004800475902000016
:1000D00008080020401E00BF00BF00BF00BF00BFD7
:1000E00000BF00BF00BF00BF00BF00BF00BFF1D115
:1000F000704700000321094802680A43026008486B
:1001000002680A4302600748804707480047FEE745
:10011000FEE7FEE7FEE7FEE7FEE7000024050040FD
:100120005405004051010000C1000000064C0125AB
:10013000064E05E0E36807CC2B430C3C984710348F
:10014000B442F7D3FFF7C0FFC4020000E40200008E
:1001500010B500F05DF8002805D01F491D48486023
:10016000C8131E4988611E48018CC9B201290BD1F0
:10017000828C120708D1028D1206120F042A03D1B5
:10018000828D1206120F0AD0012921D1818C090714
:100190001ED1018D0906090F0A2904D007E0114A72
:1001A00001219160F5E7828D1206120F05D00D290D
:1001B0000ED1808D0006000F0AD10B48016801297D
:1001C00004D00A49016001680129FCD1C0214161C4
:1001D00010BD0000DFFF07C000050040006C0040BC
:1001E000C00F00F00006004000EC064075930000D0
:1001F00002E008C8121F08C1002AFAD170477047F0
:10020000002001E001C1121F002AFBD1704700004D
:100210001048018CC9B2012917D1818C090714D16A
:10022000018D09060A0F03D1828D1206120F0ED01E
:10023000090F012903D1828D1206120F07D003295D
:1002400003D1808D0006000F01D0002070470120EF
:1002500070470000C00F00F000200121104C034641
:1002600003220D468540ED012D0F02D085002D198A
:100270002A60401C2028F4D30F200A4C4005A060BF
:10028000E36001256D05FF26F53660682946814348
:10029000A1602840E060304600F006F8F5E7000075
:1002A000000700500005005031B5054C04E0401E29
:1002B00000902046FFF70EFF00980028F7D138BDC8
:1002C000E7030000E402000000000020040000003A
:1002D000F0010000E8020000040000200408000013
:0802E000000200000024F400FC
:04000005000000C136
:00000001FF
