:020000040000FA
:1000000068100020850100009F010000A101000090
:1000100000000000000000000000000000000000E0
:10002000000000000000000000000000A30100002C
:100030000000000000000000A5010000A701000072
:10004000A9010000A9010000A9010000A901000008
:10005000A901000000000000A9010000A9010000A2
:10006000A9010000A9010000A9010000A9010000E8
:10007000A9010000A9010000A9010000A9010000D8
:10008000A9010000A9010000A9010000A9010000C8
:10009000A9010000A9010000A9010000A9010000B8
:1000A000A9010000A90100000000000000000000FC
:1000B0000000000000000000000000000000000040
:1000C00000F002F800F03EF80CA030C80838241800
:1000D0002D18A246671EAB4654465D46AC4201D180
:1000E00000F030F87E460F3E0FCCB6460126334274
:1000F00000D0FB1AA246AB46334318479C020000CF
:10010000BC020000103A02D378C878C1FAD852076E
:1001100001D330C830C101D504680C6070470000BD
:100120000023002400250026103A01D378C1FBD813
:10013000520700D330C100D50B6070471FB51FBDFB
:1001400010B510BD00F04BF81146FFF7F7FF00F0B7
:10015000EDF800F063F803B4FFF7F2FF03BC00F022
:1001600069F80000401E00BF00BF00BF00BF00BF15
:1001700000BF00BF00BF00BF00BF00BF00BFF1D184
:100180007047000003210C4802680A4302600B48D4
:1001900002680A4302600A4880470A480047FEE7AF
:1001A000FEE7FEE7FEE7FEE7FEE700000648074938
:1001B000074A084B704700002405004054050040E2
:1001C00045020000C1000000680000206810002007
:1001D000680800206808002070477047704775461F
:1001E00000F024F8AE46050069465346C008C0003A
:1001F000854618B020B5FFF7D9FF60BC0027490835
:10020000B6460026C0C5C0C5C0C5C0C5C0C5C0C5AE
:10021000C0C5C0C5403D49008D46704710B5044675
:10022000C046C0462046FFF796FF10BD0048704705
:100230000400002001491820ABBEFEE726000200A2
:100240007047000010B500F04DF8002805D01F4998
:100250001D484860C8131E4988611E48018CC9B2F8
:1002600001290BD1828C120708D1028D1206120FC0
:10027000042A03D1828D1206120F0AD0012921D13E
:10028000818C09071ED1018D0906090F0A2904D0A6
:1002900007E0114A01219160F5E7828D1206120FE5
:1002A00005D00D290ED1808D0006000F0AD10B4814
:1002B0000168012904D00A49016001680129FCD1C3
:1002C000C021416110BD0000DFFF07C000050040F4
:1002D000006C0040C00F00F00006004000EC06403B
:1002E000759300001048018CC9B2012917D1818C87
:1002F000090714D1018D09060A0F03D1828D120658
:10030000120F0ED0090F012903D1828D1206120F90
:1003100007D0032903D1808D0006000F01D00020F3
:100320007047012070470000C00F00F0002001213D
:10033000104C034603220D468540ED012D0F02D0DF
:1003400085002D192A60401C2028F4D30F200A4C68
:100350004005A060E36001256D05FF26F536606865
:1003600029468143A1602840E060304600F006F84D
:10037000F5E70000000700500005005031B5054CBE
:1003800004E0401E00902046FFF7ECFE0098002895
:10039000F7D138BDE7030000B803000000000020DB
:1003A0000400000004010000BC0300000400002061
:0C03B00064100000200100000024F40094
:04000005000000C136
:00000001FF
